S01700004D617A65536F6C76657246696E616C2E737265631B
S11300000C9446010C9463010C9463010C946301F9
S11300100C9463010C9463010C9463010C946301CC
S11300200C9463010C9463010C9463010C946301BC
S11300300C9463010C9463010C9463010C946301AC
S11300400C9463010C9463010C9463010C9463019C
S11300500C9463010C9463010C9463010C9463018C
S11300600C9463010C9463010C9463010C9463017C
S11300700C9463010C9463010C9463010C9463016C
S11300800C9463010C9463010C9463010C9463015C
S11300900C9463010C9463010C9463010C9463014C
S11300A00C9463010C9463010C9463010000000040
S11300B00000004F00000007000700147F147F14A5
S11300C0242A7F2A122313086462364955225000D9
S11300D000070000001C2241000041221C001408FB
S11300E03E081408083E08080050300000080808BC
S11300F00808006060000020100804023E514945D1
S11301003E00427F400042615149462141454B3106
S11301101814127F1027454545393C4A4949300394
S1130120017109073649494936064949291E0036ED
S1130130360000005636000008142241001414143E
S1130140141400412214080201510906324979416C
S11301503E7E1111117E7F494949363E414141227B
S11301607F4141413E7F494949417F090909013E97
S11301704149497A7F0808087F00417F41002040B7
S1130180413F017F081422417F404040407F020CE0
S1130190027F7F0408107F3E4141413E7F090909E7
S11301A0063E4151215E7F09192946464949493194
S11301B001017F01013F4040403F1F2040201F3F7D
S11301C04038403F631408146307087008076151FE
S11301D0494543007F414100020408102000414189
S11301E07F00040201020440404040400001020438
S11301F00020545454787F484444383844444420BC
S1130200384444487F3854545418087E0901020C79
S11302105252523E7F0804047800447D400020403E
S1130220443D007F1028440000417F40007C0418B6
S113023004787C0804047838444444387C14141446
S113024008081414187C7C080404084854545420E6
S1130250043F4440203C4040207C1C2040201C3C67
S11302604038403C44281028440C5050503C4464CE
S1130270544C44000836410000007F000000413621
S113028008000C02040806081C2A080811241FBED2
S1130290CFEFDAE0DEBFCDBF11E0A0E0B1E0EAE0ED
S11302A0FDE102C005900D92A436B107D9F721E013
S11302B0A4E6B1E001C01D92AD3FB207E1F70E9490
S11302C060090C94830E0C9400009F92AF92BF922D
S11302D0CF92DF92EF92FF920F931F93CF93DF930E
S11302E06C015B017A018901912C40C0C92DD0E0D9
S11302F0CC0FDD1FF701EC0FFD1F0190F081E02D05
S1130300D801AC0FBD1F4D915C91D601AC0FBD1F40
S11303102D913C91E417F50728F0CA0DDB1D1982D5
S1130320188223C0E217F30728F0CA0DDB1D1982D7
S113033018821BC02417350738F0CA0DDB1D88EE60
S113034093E09983888311C0CA0DDB1D2E1B3F0BDC
S1130350A8EEB3E00E945D0B9A012E1B3F0B40E018
S113036050E00E941C0B39832883939484E0891500
S113037008F0BCCFDF91CF911F910F91FF90EF90C8
S1130380DF90CF90BF90AF909F900895FC016130B3
S113039039F484B1806884B985B1806885B905C0B1
S11303A0611103C084B18F7784B98AB180648AB93A
S11303B08BB180648BB980B3826B80BB81B3826B59
S11303C081BB85E38A95F1F70000109295001092A5
S11303D094008AB18F7B8AB980B38D7480BB8BB152
S11303E08F7B8BB981B38D7481BBA0919001B09147
S11303F09101B187A087B783A683B583A483B38310
S1130400A283B183A0839FE129C089B12FB1409118
S113041094005091950090FF05C086FD03C0518360
S113042040839E7F91FF05C022231CF053834283A7
S11304309D7F92FF05C025FD03C0558344839B7FA8
S113044093FF05C024FD03C057834683977F94FF21
S113045005C021FD03C0518740879F7E992339F051
S113046020919400309195002A173B0770F2623076
S113047018F484B18F7784B90895009711F481E05A
S113048090E0992314F48FEF9FE7909301018093F8
S11304900001880F991F9093910180939001089512
S11304A020E01DC0822F90E0409100015091010195
S11304B0880F991FFC01EA57FE4F51834083FC01CA
S11304C0E458FE4F11821082FC01EE58FE4F518316
S11304D04083FC01E859FE4F118210822F5F2530C2
S11304E008F3109266011092670110926501109250
S11304F0640108951092900082E08093910084B189
S11305008F7784B980EA9FE00E943D020E945002E6
S113051008950F931F93CF93DF93CDB7DEB72A9738
S11305200FB6F894DEBF0FBECDBF8C01CE0101968D
S11305300E94C60120E026C0E22FF0E0EE0FFF1F6C
S113054081E090E08C0F9D1FE80FF91F808191815D
S113055096958795A0E0B0E040910001509101018B
S113056060E070E0481759076A077B0710F0AC0198
S1130570BD01E22FF0E0EE0FFF1FE00FF11F5183EA
S113058040832F5F2530C0F22A960FB6F894DEBF61
S11305900FBECDBFDF91CF911F910F9108950F939F
S11305A01F93CF93DF93CDB7DEB76E970FB6F89452
S11305B0DEBF0FBECDBF823009F4E5C0FE013B961D
S11305C09AE0DF011D929A95E9F790E011C0E92FB6
S11305D0F0E0EE0FFF1F21E030E02C0F3D1FE20F93
S11305E0F31F2091000130910101358B248B9F5F13
S11305F0953068F3082F10E043C0602FCE010196B8
S11306000E94890280E033C0282F30E0F901EE0F08
S1130610FF1F41E050E04C0F5D1FE40FF51F4081C8
S11306205181628573856417750758F4F901EE0FDB
S1130630FF1F61E070E06C0F7D1FE60FF71F53870B
S11306404287F901EE0FFF1FA1E0B0E0AC0FBD1F20
S1130650EA0FFB1F648975894617570738F4220F80
S1130660331FFD01E20FF31F558B448B8F5F8530E1
S113067058F28FE99FE00197F1F700C000001F5F77
S11306801A3008F4BACF013009F03FC081E08093FA
S1130690670140E037C0242F30E0C901880F991F5B
S11306A0E1E0F0E0EC0FFD1FE80FF91F64897589A4
S11306B0FC01E458FE4F808191818617970738F436
S11306C0F901EE0FFF1FE458FE4F71836083C901E7
S11306D0880F991FE1E0F0E0EC0FFD1FE80FF91F10
S11306E062857385FC01EA57FE4F8081918168170A
S11306F0790738F4220F331FF901EA57FE4F71834B
S113070060834F5F453038F23EC081E080936601DC
S113071040E037C0242F30E0C901880F991FE1E081
S1130720F0E0EC0FFD1FE80FF91F64897589FC01E7
S1130730E859FE4F808191818617970738F4F901B3
S1130740EE0FFF1FE859FE4F71836083C901880FC4
S1130750991FE1E0F0E0EC0FFD1FE80FF91F62853F
S11307607385FC01EE58FE4F8081918168177907EB
S113077038F4220F331FF901EE58FE4F7183608362
S11307804F5F453038F26E960FB6F894DEBF0FBE59
S1130790CDBFDF91CF911F910F910895EF92FF92FA
S11307A01F93CF93DF93CDB7DEB72A970FB6F89494
S11307B0DEBF0FBECDBF9C01623079F40AC0E92FC1
S11307C0F0E0EE0FFF1FE20FF31F118210829F5F14
S11307D001C090E0953098F335C0162F7C01CE010E
S11307E001960E948902113071F480916701882377
S11307F051F02CE731E046E851E0B701CE01019613
S11308000E9465011FC0111118C0809166018823E0
S1130810B1F028E631E042E751E0B701CE0101969C
S11308200E9465010FC0E92FF0E0EE0FFF1FEE0DEF
S1130830FF1D118210829F5F03C090E001C090E011
S1130840953088F32A960FB6F894DEBF0FBECDBF5D
S1130850DF91CF911F91FF90EF9008954F925F9297
S11308606F927F928F929F92AF92BF92CF92DF92BC
S1130870EF92FF92CF93DF93EC01F42E0E94CE030C
S1130880F11011C013C0E82FF0E0EE0FFF1FEC0FC2
S1130890FD1F4081518128EE33E0241B350B318349
S11308A020838F5F01C081E0843068F3E1E0812C14
S11308B0912C5401412C512C3201F0E02AC08E2F8E
S11308C090E0DC01AA0FBB1FAC0FBD1FCD90DC90E4
S11308D029ECC216D10408F0F1E023E3C216D104D6
S11308E0B8F0E12CF12C28EE33E0829FD001839FF5
S11308F0B00D929FB00D1124A70196010E946C0BBC
S1130900460E571E681E791E8C0C9D1CAE1CBF1C07
S1130910EF5FE430A0F2F1110AC08091640190917C
S11309206501803D974078F480E090E00EC0C301FB
S1130930B201A50194010E941C0BC9013093650109
S11309402093640102C080EA9FE0DF91CF91FF9081
S1130950EF90DF90CF90BF90AF909F908F907F905B
S11309606F905F904F90089540E00E942E04089588
S1130970E9EDF1E080E590E09183808313821282B7
S1130980958384838CE390E09783868380E190E071
S11309909187808780E490E0938782871586148608
S11309A08DE390E09787868786E290E0918B808B39
S11309B028E230E0338B228B2AE530E0358B248B20
S11309C024E630E0378B268B28EC30E0318F208F03
S11309D028E430E0338F228F958F848F82E390E078
S11309E0978F868F87E390E091A380A30895109258
S11309F09201109293010895E0919201EF3368F40B
S1130A0091E09E0F90939201F0E0ED56FE4F8083AB
S1130A10E92FF0E0ED56FE4F10820895E091920127
S1130A20E33008F455C02E2F30E0D901AF56BE4F45
S1130A308C91853509F04CC091E060E070E015C000
S1130A40D901A91BB109AD56BE4F4C91423519F4D9
S1130A50665A7F4F09C04C3419F4625F7E4F04C05C
S1130A60453511F46C547F4F9F5F943048F3CB01AC
S1130A7068E671E00E94080B8A35910589F01CF440
S1130A80892B41F01EC0843B910581F08E3091404A
S1130A9099F017C0D901A057BE4F83E58C9311C0BC
S1130AA0D901A057BE4F82E58C930BC0D901A05742
S1130AB0BE4F85E58C9305C0D901A057BE4F8CE489
S1130AC08C93E250E0939201F0E0ED56FE4F1082D9
S1130AD00895811106C0611106C0442331F082E5F6
S1130AE008958CE4089583E5089585E50895CF93EA
S1130AF0C82F0E94590A8C2F8F70806B0E94610A44
S1130B0080E10E94610A82E00E94610A0E945D0AFB
S1130B10C0E004C080E00E94610ACF5FCC23D4F718
S1130B20CF910895CF93DF93C82FD62F0E94590AEF
S1130B308C2F8F70806B0E94610A8D2F82958F702D
S1130B4080610E94610A8D2F8F700E94610A0E9449
S1130B505D0ADF91CF910895CF93DF93D82FC0E042
S1130B6007C06C2F8D2F0E94E50A0E94610ACF5F97
S1130B70C530B8F380E00E94610ADF91CF910895F7
S1130B80CF93DF93EA010E94920503C021960E944D
S1130B90AC0588818111FACFDF91CF9108950E942D
S1130BA0280A0E944A0A0E94AD0A0E94D10A44E01F
S1130BB051E060E080E00E94C00540E151E060E067
S1130BC081E00E94C0050895CF93DF938235F9F048
S1130BD08535B9F18C3409F04FC0C9EDD1E08E8967
S1130BE09F89BC019195819591090E94DF09888DA7
S1130BF0998D07C08FE99FE00197F1F700C00000CD
S1130C00C9019C0121503109892BA1F735C0C9EDD7
S1130C10D1E08E899F8966277727681B790B0E940C
S1130C20DF09888D998D07C08FE99FE00197F1F75F
S1130C3000C00000C9019C0121503109892BA1F792
S1130C401BC0C9EDD1E08E899F8966277727681B71
S1130C50790B0E94DF09888D998D880F991F07C031
S1130C608FE99FE00197F1F700C00000C9019C01E2
S1130C7021503109892BA1F760E070E080E090E019
S1130C800E94DF099FEF29EF80E0915020408040CF
S1130C90E1F700C00000DF91CF9108954F925F9279
S1130CA06F927F928F929F92AF92BF92CF92DF9278
S1130CB0EF92FF920F931F93CF93DF93CDB7DEB7DD
S1130CC02E970FB6F894DEBF0FBECDBF1092D4019D
S1130CD01092D30161E0CE0101960E94B4048C010C
S1130CE0005D17404801012E000CAA08BB08E9ED7D
S1130CF0F1E0A085B185A50194010E946C0BC72E7B
S1130D00D82EE92EFF24E7FCFA948091D301909128
S1130D10D401092E000CAA0BBB0B281B390B4A0B60
S1130D205B0BA285B3850E946C0B472E582E692E4F
S1130D30772467FC7A9429813A818B819C81A0E095
S1130D40B0E0820F931FA11DB11D2D813E81820F42
S1130D50931FA11DB11D2F813885820F931FA11DE3
S1130D60B11D29853A85820F931FA11DB11D893CB0
S1130D709105A105B105A8F08091D5019091D60106
S1130D80A091D701B091D801880E991EAA1EBB1E4E
S1130D908092D5019092D601A092D701B092D80149
S1130DA01EC08091D5019091D601A091D701B09138
S1130DB0D801AC01BD01689412F8759567955795F3
S1130DC047951694D1F7841B950BA60BB70B80930C
S1130DD0D5019093D601A093D701B093D801A090E8
S1130DE0E501B090E601C501A0E0B0E08B879C87E7
S1130DF0AD87BE876091D5017091D6018091D701EE
S1130E009091D8012B853C854D855E850E94F80A1A
S1130E10BB2797FDBA95A92F982F872F873991055E
S1130E20A105B105D4F0A114B10499F060E076E90C
S1130E3080E090E00E943E0B2093D5013093D601D0
S1130E404093D7015093D80186E990E0A0E0B0E048
S1130E5004C086E990E0A0E0B0E08A362FEF920764
S1130E60A207B207ECF4AB28B9F060E07AE68FEFA2
S1130E709FEF2B853C854D855E850E943E0B20931C
S1130E80D5013093D6014093D7015093D8018AE617
S1130E909FEFAFEFBFEF04C08AE69FEFAFEFBFEF66
S1130EA0C40CD51C8C0D9D1D1093D4010093D3014B
S1130EB0E9EDF1E024813581AC01420F531F281B79
S1130EC0390BA081B181628173814617570734F0D1
S1130ED0A417B50734F48A2F9B2F05C0862F972FAC
S1130EE002C0842F952F2617370734F0A217B307B3
S1130EF014F4BD0101C0B9010E94DF098B819C81FA
S1130F008436910560F48D819E818436910548F480
S1130F108F8198858436910530F090E005C090E08B
S1130F2003C090E001C091E0892F817089F4898128
S1130F309A81893C910560F489859A85893C91055B
S1130F4038F48FE39FE10197F1F700C00000C2CEAF
S1130F502E960FB6F894DEBF0FBECDBFDF91CF91B2
S1130F601F910F91FF90EF90DF90CF90BF90AF90C3
S1130F709F908F907F906F905F904F900895EF9225
S1130F80FF920F931F93CF93DF93CDB7DEB7A29752
S1130F900FB6F894DEBF0FBECDBF0E944E0609ED1A
S1130FA011E0F80186859785BC010E94DF09F801EC
S1130FB08089918907C08FE99FE00197F1F700C00C
S1130FC00000C9019C0121503109892BA1F761E07E
S1130FD0CE0149960E94B404898D9A8D893C91056D
S1130FE010F4F12C02C0FF24F39489A19AA1893C46
S1130FF0910510F4E12C02C0EE24E39409ED11E014
S1131000F80182899389BC010E94DF09F80184896F
S1131010958907C08FE99FE00197F1F700C00000B0
S1131020C9019C0121503109892BA1F761E0CE014E
S113103049960E94B4048B8D9C8D8D32E1E09E070D
S113104060F42D8D3E8D2D32314048F42F8D38A122
S11310502D32314030F460E005C061E003C061E04E
S113106001C061E0298D3A8D2D32314078F18D3205
S1131070914060F18D8D9E8D8D32914038F18F8D30
S113108098A18D32914010F189A19AA18D3291409D
S1131090E8F060E070E080E090E00E94DF0980E02A
S11310A00E94770581E00E9477054CE151E060E001
S11310B080E00E94C005FFEF2FE443ECF150204094
S11310C04040E1F700C0000081E02CC04E2D8F2D80
S11310D00E946905182F0E94E405812F0E94FC04D8
S11310E00E940E0581E00E94770583E991E09F93B9
S11310F08F9389E291E09F938F931F9288E18F935E
S11311008E010F5F1F4F1F930F930E948B0BA8013B
S113111060E081E00E94C0050FB6F894DEBF0FBE08
S1131120CDBF80E0A2960FB6F894DEBF0FBECDBF50
S1131130DF91CF911F910F91FF90EF90089580E080
S11311400E94770581E00E94770542E351E060E068
S113115080E00E94C0050E94F7040E94BF07882314
S1131160E1F30895EF92FF921F93CF93DF93CDB7EE
S1131170DEB768970FB6F894DEBF0FBECDBF80E030
S11311800E94770581E00E9477054EE351E060E01C
S113119080E00E94C00543E951E060E081E00E94E4
S11311A0C0052AEA34ED8CE191E0215030408040C2
S11311B09040D9F7000080E00E94770581E00E940A
S11311C0770540E551E060E080E00E94C00543E916
S11311D051E060E081E00E94C00510E042C00E943E
S11311E04E060F2EF9EDEF2EF1E0FF2EF02DF70154
S11311F0828D938DBC010E94DF09F701848D958D4A
S113120007C08FE99FE00197F1F700C00000C90112
S11312109C0121503109892BA1F70F2EF9EDEF2EF6
S1131220F1E0FF2EF02DF701868D978DBC010E9411
S1131230DF09F70180A191A107C08FE99FE0019721
S1131240F1F700C00000C9019C0121503109892B2C
S1131250A1F7E12FF0E0ED56FE4F80810E94E405F6
S11312601F5F80919201181708F4B9CF0E944E06AF
S113127060E070E080E090E00E94DF0980E00E947E
S1131280770581E00E94770586E0EDE5F1E0DE0177
S1131290119601900D928A95E1F7AE014F5F5F4F71
S11312A060E080E00E94C00568960FB6F894DEBF47
S11312B00FBECDBFDF91CF911F91FF90EF900895A6
S11312C00E947A0280E991E00E94B7090E94B80462
S11312D00E94CF052FEF85EA9EE021508040904088
S11312E0E1F700C000000E945002C0E0D0E031C02D
S11312F0CE0187709927892B49F481E00E947705F4
S113130040E151E060E081E00E94C005CE014597D4
S1131310889758F48091DF019091E001BC01919588
S1131320819591090E94DF090AC08091DF019091A3
S1131330E00166277727681B790B0E94DF0981E0AB
S11313400E94CF028FE39CE90197F1F700C00000EF
S11313502196C035D10560F260E070E080E090E055
S11313600E94DF090E949F080E94B208FFCF0097E5
S113137019F420E981E002C0282F892F209302016B
S11313808093030184B1866684B985B1897F85B968
S113139080EA8093800081E1809381008091020142
S11313A090910301909387008093860010928900A6
S11313B01092880010928B0010928A000895F09188
S11313C0FC0199232CF4919581959109E1E001C0E8
S11313D0E0E02091020130910301A90128173907A7
S11313E00CF0AC014217530708F49A0130938B00B8
S11313F020938A00FE1721F085B1846085B903C06B
S113140085B18B7F85B95091FB0177232CF47195BD
S11314106195710941E001C040E080910201909121
S113142003019C01861797070CF09B0128173907C5
S113143008F4C9019093890080938800541721F01F
S113144085B1826085B9089585B18D7F85B9089588
S11314508AB184608AB98AB188608AB98BB1877F7E
S11314608BB98AB180628AB984B1816084B90895E4
S11314708BB1877F8BB908958BB188608BB9089540
S1131480811104C08BB18F7D8BB908958BB18062BB
S11314908BB908958BB18B7F8BB985E38A95F1F76E
S11314A000008BB184608BB985E38A95F1F7000065
S11314B0089585B18E7F85B9089585B1816085B918
S11314C00895CF93C82F0E94380A8C2F881F88272D
S11314D0881F0E94400A0E943C0A0E94380AC6FBE8
S11314E0882780F90E94400A0E943C0A0E94380A18
S11314F0C5FB882780F90E94400A0E943C0A0E948A
S1131500380AC4FB882780F90E94400A0E943C0ADA
S11315100E94380AC3FB882780F90E94400A0E946F
S11315203C0A0E94380AC2FB882780F90E94400ABC
S11315300E943C0A0E94380AC1FB882780F90E9455
S1131540400A0E943C0A0E94380A8C2F81700E9433
S1131550400A0E943C0ACF910895CF93DF930E94E2
S1131560380A0E94590A82E00E94610AD0E014C03D
S11315700E94590A8D2F806B0E94610A80E10E94AB
S1131580610A0E945D0AC0E004C080E00E94610A12
S1131590CF5FCC23D4F7DF5FD83050F3DF91CF9106
S11315A008950E94380A0E94590A81EA0E94610A39
S11315B088EC0E94610A81E80E94610A8FEF0E9410
S11315C0610A8FEA0E94610A0895803278F090E0FF
S11315D08097FC01EE0FFF1FEE0FFF1FE80FF91FAE
S11315E0E60FF11DE455FF4F8491089580E00895BE
S11315F0DB018F939F930E946C0BBF91AF91A29FCD
S1131600800D911DA39F900DB29F900D11240895FC
S113161097FB072E16F4009407D077FD09D00E949B
S1131620770B07FC05D03EF4909581959F4F089564
S1131630709561957F4F0895A1E21A2EAA1BBB1BDA
S1131640FD010DC0AA1FBB1FEE1FFF1FA217B3078A
S1131650E407F50720F0A21BB30BE40BF50B661FA0
S1131660771F881F991F1A9469F760957095809564
S113167090959B01AC01BD01CF010895052E97FB08
S11316801EF400940E94550B57FD07D00E941C0BBA
S113169007FC03D04EF40C94550B509540953095AF
S11316A021953F4F4F4F5F4F0895909580957095CA
S11316B061957F4F8F4F9F4F0895A29FB001B39FB5
S11316C0C001A39F700D811D1124911DB29F700D47
S11316D0811D1124911D08950E945D0BA59F900DFD
S11316E0B49F900DA49F800D911D11240895AA1BF1
S11316F0BB1B51E107C0AA1FBB1FA617B70710F0F9
S1131700A61BB70B881F991F5A95A9F7809590952A
S1131710BC01CD010895AEE0B0E0E1E9FBE00C943A
S11317205A0E0D891E898F89988D26E02C831A8381
S1131730098397FF02C080E090E801979E838D8320
S1131740AE01455E5F4F698D7A8DCE0101960E9490
S1131750BB0B4D815E8157FD0AC02F81388542172E
S113176053070CF49A01F801E20FF31F10822E962E
S1131770E4E00C94760EABE0B0E0E1ECFBE00C941A
S11317804C0E6C017B018A01FC0117821682838155
S113179081FFCCC1CE0101963C01F6019381F70192
S11317A093FD859193FF81917F01882309F4BAC148
S11317B0853239F493FD859193FF81917F018532C0
S11317C029F4B60190E00E94B20DE7CF912C212CB0
S11317D0312CFFE1F315D8F08B3279F038F48032F4
S11317E079F08332A1F4232D20611DC08D3261F084
S11317F0803369F4232D216016C0832D8260382E36
S1131800E32DE4603E2E2AC0F32DF8601DC037FCA2
S11318102DC020ED280F2A3040F08E32B9F436FC6A
S113182081C1232D2064322E19C036FE06C08AE001
S1131830989E200D1124922E11C0EAE02E9E200DB8
S11318401124222EF32DF0623F2E08C08C3621F491
S1131850832D8068382E02C0883641F4F70193FD49
S1131860859193FF81917F018111B3CF982F9F7D43
S11318709554933028F40C5F1F4F9FE399830DC058
S1131880833631F0833771F0833509F059C021C0B4
S1131890F801808189830E5F1F4F88248394912CE3
S11318A0530113C02801F2E04F0E511CF801A0802F
S11318B0B18036FE03C0692D70E002C06FEF7FEF88
S11318C0C5010E94A70D4C018201F32DFF773F2E25
S11318D016C0280122E0420E511CF801A080B180FC
S11318E036FE03C0692D70E002C06FEF7FEFC501C3
S11318F00E949C0D4C01F32DF0683F2E820133FCB5
S11319001BC0822D90E088169906B0F4B60180E2DF
S113191090E00E94B20D2A94F4CFF50137FC859132
S113192037FE81915F01B60190E00E94B20D211053
S11319302A9421E0821A91088114910471F7E8C075
S1131940843611F0893641F5F80137FE07C060810D
S11319507181828193810C5F1F4F08C06081718106
S1131960072E000C880B990B0E5F1F4FF32DFF768B
S11319703F2E97FF09C090958095709561957F4F94
S11319808F4F9F4FF0683F2E2AE030E0A3010E9462
S1131990EE0D882E861845C0853731F4232D2F7E11
S11319A0B22E2AE030E025C0932D997FB92E8F36D0
S11319B0C1F018F4883579F0B5C0803719F088374C
S11319C021F0B0C0E92FE061BE2EB4FE0DC0FB2DA6
S11319D0F460BF2E09C034FE0AC0292F2660B22E3F
S11319E006C028E030E005C020E130E002C020E17C
S11319F032E0F801B7FE07C0608171818281938172
S1131A000C5F1F4F06C06081718180E090E00E5F23
S1131A101F4FA3010E94EE0D882E8618FB2DFF7721
S1131A203F2E36FE0DC0232D2E7FA22E891458F48E
S1131A3034FE0BC032FC09C0832D8E7EA82E05C057
S1131A40B82CA32C03C0B82C01C0B92CA4FE0FC021
S1131A50FE01E80DF11D8081803321F49A2D997ED9
S1131A60A92E09C0A2FE06C0B394B39404C08A2D63
S1131A70867809F0B394A3FC11C0A0FE06C0B2148A
S1131A8088F4280C922C9B180EC0B21460F4B60192
S1131A9080E290E00E94B20DB394F7CFB21418F430
S1131AA02B1802C0982C212CA4FE10C0B60180E390
S1131AB090E00E94B20DA2FE17C0A1FC03C088E70B
S1131AC090E002C088E590E0B6010CC08A2D8678CB
S1131AD059F0A1FE02C08BE201C080E2A7FC8DE2B6
S1131AE0B60190E00E94B20D891438F4B60180E387
S1131AF090E00E94B20D9A94F7CF8A94F301E80D16
S1131B00F11D8081B60190E00E94B20D8110F5CFE5
S1131B10222009F442CEB60180E290E00E94B20D88
S1131B202A94F6CFF6018681978102C08FEF9FEF4A
S1131B302B96E2E10C94680EFC0105906150704014
S1131B400110D8F7809590958E0F9F1F0895FC0182
S1131B506150704001900110D8F7809590958E0FD8
S1131B609F1F08950F931F93CF93DF93FB0123814E
S1131B7021FD03C08FEF9FEF2CC022FF16C04681CA
S1131B805781248135814217530744F4A081B181E0
S1131B909D012F5F3F4F318320838C9326813781B2
S1131BA02F5F3F4F3783268314C08B01EC01FB0169
S1131BB00084F185E02D0995892BE1F6D80116966C
S1131BC08D919C911797019617969C938E931697D7
S1131BD0CE01DF91CF911F910F910895FA01AA27A9
S1131BE0283051F1203181F1E8946F936E7F6E5F5C
S1131BF07F4F8F4F9F4FAF4FB1E03ED0B4E03CD00A
S1131C00670F781F891F9A1FA11D680F791F8A1FEC
S1131C10911DA11D6A0F711D811D911DA11D20D053
S1131C2009F468943F912AE0269F11243019305D0D
S1131C303193DEF6CF010895462F4770405D4193FE
S1131C40B3E00FD0C9F7F6CF462F4F70405D4A334B
S1131C5018F0495D31FD4052419302D0A9F7EACF13
S1131C60B4E0A6959795879577956795BA95C9F742
S1131C7000976105710508959B01AC010A2E069435
S1131C805795479537952795BA95C9F7620F731FEE
S1131C90841F951FA01D08952F923F924F925F922B
S1131CA06F927F928F929F92AF92BF92CF92DF9268
S1131CB0EF92FF920F931F93CF93DF93CDB7DEB7CD
S1131CC0CA1BDB0B0FB6F894DEBF0FBECDBF099461
S1131CD02A88398848885F846E847D848C849B84B8
S1131CE0AA84B984C884DF80EE80FD800C811B81C6
S1131CF0AA81B981CE0FD11D0FB6F894DEBF0FBEF5
S10D1D00CDBFED010895F894FFCF64
S1131D0AA00F90014D617A6520536F6C766572005D
S1131D1A43616C6962726174696E6700476F616CD2
S1131D2A205265616368656400506174683A2025CD
S1131D3A73004C6561726E696E672E2E2E005265B1
S1131D4A73657420746F2073746172742E2E2E005E
S1131D5A5265706C6179696E672E2E2E00446F6E1F
S1071D6A65210000EB
S9030000FC
