:100000000C9446010C9463010C9463010C946301FD
:100010000C9463010C9463010C9463010C946301D0
:100020000C9463010C9463010C9463010C946301C0
:100030000C9463010C9463010C9463010C946301B0
:100040000C9463010C9463010C9463010C946301A0
:100050000C9463010C9463010C9463010C94630190
:100060000C9463010C9463010C9463010C94630180
:100070000C9463010C9463010C9463010C94630170
:100080000C9463010C9463010C9463010C94630160
:100090000C9463010C9463010C9463010C94630150
:1000A0000C9463010C9463010C9463010000000044
:1000B0000000004F00000007000700147F147F14A9
:1000C000242A7F2A122313086462364955225000DD
:1000D00000070000001C2241000041221C001408FF
:1000E0003E081408083E08080050300000080808C0
:1000F0000808006060000020100804023E514945D5
:100100003E00427F400042615149462141454B310A
:100110001814127F1027454545393C4A4949300398
:10012000017109073649494936064949291E0036F1
:100130003600000056360000081422410014141442
:100140001414004122140802015109063249794170
:100150003E7E1111117E7F494949363E414141227F
:100160007F4141413E7F494949417F090909013E9B
:100170004149497A7F0808087F00417F41002040BB
:10018000413F017F081422417F404040407F020CE4
:10019000027F7F0408107F3E4141413E7F090909EB
:1001A000063E4151215E7F09192946464949493198
:1001B00001017F01013F4040403F1F2040201F3F81
:1001C0004038403F63140814630708700807615102
:1001D000494543007F41410002040810200041418D
:1001E0007F0004020102044040404040000102043C
:1001F0000020545454787F484444383844444420C0
:10020000384444487F3854545418087E0901020C7D
:100210005252523E7F0804047800447D4000204042
:10022000443D007F1028440000417F40007C0418BA
:1002300004787C0804047838444444387C1414144A
:1002400008081414187C7C080404084854545420EA
:10025000043F4440203C4040207C1C2040201C3C6B
:100260004038403C44281028440C5050503C4464D2
:10027000544C44000836410000007F000000413625
:1002800008000C02040806081C2A080811241FBED6
:10029000CFEFDAE0DEBFCDBF11E0A0E0B1E0EEE0ED
:1002A000FDE102C005900D92A036B107D9F721E01B
:1002B000A0E6B1E001C01D92A93DB207E1F70E949E
:1002C00062090C94850E0C9400009F92AF92BF922D
:1002D000CF92DF92EF92FF920F931F93CF93DF9312
:1002E0006C015B017A018901912C40C0C92DD0E0DD
:1002F000CC0FDD1FF701EC0FFD1F0190F081E02D09
:10030000D801AC0FBD1F4D915C91D601AC0FBD1F44
:100310002D913C91E417F50728F0CA0DDB1D1982D9
:10032000188223C0E217F30728F0CA0DDB1D1982DB
:1003300018821BC02417350738F0CA0DDB1D88EE64
:1003400093E09983888311C0CA0DDB1D2E1B3F0BE0
:10035000A8EEB3E00E945F0B9A012E1B3F0B40E01A
:1003600050E00E941E0B39832883939484E0891502
:1003700008F0BCCFDF91CF911F910F91FF90EF90CC
:10038000DF90CF90BF90AF909F900895FC016130B7
:1003900039F484B1806884B985B1806885B905C0B5
:1003A000611103C084B18F7784B98AB180648AB93E
:1003B0008BB180648BB980B3826B80BB81B3826B5D
:1003C00081BB85E38A95F1F70000109295001092A9
:1003D00094008AB18F7B8AB980B38D7480BB8BB156
:1003E0008F7B8BB981B38D7481BBA0918C01B0914F
:1003F0008D01B187A087B783A683B583A483B38318
:10040000A283B183A0839FE129C089B12FB140911C
:1004100094005091950090FF05C086FD03C0518364
:1004200040839E7F91FF05C022231CF053834283AB
:100430009D7F92FF05C025FD03C0558344839B7FAC
:1004400093FF05C024FD03C057834683977F94FF25
:1004500005C021FD03C0518740879F7E992339F055
:1004600020919400309195002A173B0770F262307A
:1004700018F484B18F7784B90895009711F481E05E
:1004800090E0992314F48FEF9FE7909301018093FC
:100490000001880F991F90938D0180938C0108951E
:1004A00020E01DC0822F90E0409100015091010199
:1004B000880F991FFC01EE57FE4F51834083FC01CA
:1004C000E858FE4F11821082FC01E259FE4F518321
:1004D0004083FC01EC59FE4F118210822F5F2530C2
:1004E00008F3109262011092630110926101109260
:1004F000600108951092900082E08093910084B191
:100500008F7784B980EA9FE00E943D020E945002EA
:1005100008950F931F93CF93DF93CDB7DEB72A973C
:100520000FB6F894DEBF0FBECDBF8C01CE01019691
:100530000E94C60120E026C0E22FF0E0EE0FFF1F70
:1005400081E090E08C0F9D1FE80FF91F8081918161
:1005500096958795A0E0B0E040910001509101018F
:1005600060E070E0481759076A077B0710F0AC019C
:10057000BD01E22FF0E0EE0FFF1FE00FF11F5183EE
:1005800040832F5F2530C0F22A960FB6F894DEBF65
:100590000FBECDBFDF91CF911F910F9108950F93A3
:1005A0001F93CF93DF93CDB7DEB76E970FB6F89456
:1005B000DEBF0FBECDBF823009F4E5C0FE013B9621
:1005C0009AE0DF011D929A95E9F790E011C0E92FBA
:1005D000F0E0EE0FFF1F21E030E02C0F3D1FE20F97
:1005E000F31F2091000130910101358B248B9F5F17
:1005F000953068F3082F10E043C0602FCE010196BC
:100600000E94890280E033C0282F30E0F901EE0F0C
:10061000FF1F41E050E04C0F5D1FE40FF51F4081CC
:100620005181628573856417750758F4F901EE0FDF
:10063000FF1F61E070E06C0F7D1FE60FF71F53870F
:100640004287F901EE0FFF1FA1E0B0E0AC0FBD1F24
:10065000EA0FFB1F648975894617570738F4220F84
:10066000331FFD01E20FF31F558B448B8F5F8530E5
:1006700058F28FE99FE00197F1F700C000001F5F7B
:100680001A3008F4BACF013009F03FC081E08093FE
:10069000630140E037C0242F30E0C901880F991F63
:1006A000E1E0F0E0EC0FFD1FE80FF91F64897589A8
:1006B000FC01E858FE4F808191818617970738F436
:1006C000F901EE0FFF1FE858FE4F71836083C901E7
:1006D000880F991FE1E0F0E0EC0FFD1FE80FF91F14
:1006E00062857385FC01EE57FE4F8081918168170A
:1006F000790738F4220F331FF901EE57FE4F71834B
:1007000060834F5F453038F23EC081E080936201E4
:1007100040E037C0242F30E0C901880F991FE1E085
:10072000F0E0EC0FFD1FE80FF91F64897589FC01EB
:10073000EC59FE4F808191818617970738F4F901B3
:10074000EE0FFF1FEC59FE4F71836083C901880FC4
:10075000991FE1E0F0E0EC0FFD1FE80FF91F628543
:100760007385FC01E259FE4F8081918168177907FA
:1007700038F4220F331FF901E259FE4F7183608371
:100780004F5F453038F26E960FB6F894DEBF0FBE5D
:10079000CDBFDF91CF911F910F910895EF92FF92FE
:1007A0001F93CF93DF93CDB7DEB72A970FB6F89498
:1007B000DEBF0FBECDBF9C01623079F40AC0E92FC5
:1007C000F0E0EE0FFF1FE20FF31F118210829F5F18
:1007D00001C090E0953098F335C0162F7C01CE0112
:1007E00001960E948902113071F48091630188237F
:1007F00051F028E731E042E851E0B701CE0101961F
:100800000E9465011FC0111118C0809162018823E8
:10081000B1F024E631E04EE651E0B701CE01019699
:100820000E9465010FC0E92FF0E0EE0FFF1FEE0DF3
:10083000FF1D118210829F5F03C090E001C090E015
:10084000953088F32A960FB6F894DEBF0FBECDBF61
:10085000DF91CF911F91FF90EF9008954F925F929B
:100860006F927F928F929F92AF92BF92CF92DF92C0
:10087000EF92FF92CF93DF93EC01F42E0E94CE0310
:10088000F11011C013C0E82FF0E0EE0FFF1FEC0FC6
:10089000FD1F4081518128EE33E0241B350B31834D
:1008A00020838F5F01C081E0843068F3E1E0812C18
:1008B000912C5401412C512C3201F0E02AC08E2F92
:1008C00090E0DC01AA0FBB1FAC0FBD1FCD90DC90E8
:1008D00029ECC216D10408F0F1E023E3C216D104DA
:1008E000B8F0E12CF12C28EE33E0829FD001839FF9
:1008F000B00D929FB00D1124A70196010E946E0BBE
:10090000460E571E681E791E8C0C9D1CAE1CBF1C0B
:10091000EF5FE430A0F2F1110AC080916001909184
:100920006101803D974078F480E090E00EC0C30103
:10093000B201A50194010E941E0BC901309361010F
:100940002093600102C080EA9FE0DF91CF91FF9089
:10095000EF90DF90CF90BF90AF909F908F907F905F
:100960006F905F904F90089540E00E942E0408958C
:10097000E5EBF1E080E590E09183808313821282C1
:10098000958384838CE390E09783868380E190E075
:100990009187808780E490E093878287158614860C
:1009A0008DE390E09787868786E290E0918B808B3D
:1009B00028E230E0338B228B2AE530E0358B248B24
:1009C00024E630E0378B268B28EC30E0318F208F07
:1009D00028E430E0338F228F958F848F82E390E07C
:1009E000978F868F87E390E091A380A3089510925C
:1009F0008E0110928F010895E0918E01EF3168F41D
:100A000091E09E0F90938E01F0E0E157FE4F8083BE
:100A1000E92FF0E0E157FE4F10820895E0918E013A
:100A2000E33008F455C02E2F30E0D901A357BE4F54
:100A30008C91853509F04CC091E060E070E015C004
:100A4000D901A91BB109A157BE4F4C91423519F4E8
:100A5000665A7F4F09C04C3419F4625F7E4F04C060
:100A6000453511F46C547F4F9F5F943048F3CB01B0
:100A700068E671E00E940A0B8A35910589F01CF442
:100A8000892B41F01EC0843B910581F08E3091404E
:100A900099F017C0D901A457BE4F83E58C9311C0BC
:100AA000D901A457BE4F82E58C930BC0D901A4573E
:100AB000BE4F85E58C9305C0D901A457BE4F8CE489
:100AC0008C93E250E0938E01F0E0E157FE4F1082EC
:100AD0000895811106C0611106C0442331F082E5FA
:100AE00008958CE4089583E5089585E50895CF93EE
:100AF000C82F0E945B0A8C2F8F70806B0E94630A44
:100B000080E10E94630A82E00E94630A0E945F0AF9
:100B1000C0E004C080E00E94630ACF5FCC23D4F71A
:100B2000CF910895CF93DF93C82FD62F0E945B0AF1
:100B30008C2F8F70806B0E94630A8D2F82958F702F
:100B400080610E94630A8D2F8F700E94630A0E9449
:100B50005F0ADF91CF910895CF93DF93D82FC0E044
:100B600007C06C2F8D2F0E94E70A0E94630ACF5F97
:100B7000C530B8F380E00E94630ADF91CF910895F9
:100B8000CF93DF93EA010E94920503C021960E9451
:100B9000AC0588818111FACFDF91CF9108950E9431
:100BA0002A0A0E944C0A0E94AF0A0E94D30A44E01B
:100BB00051E060E080E00E94C00540E151E060E06B
:100BC00081E00E94C0050895CF93DF938235F9F04C
:100BD0008535B9F18C3409F04FC0C5EBD1E08E8971
:100BE0009F89BC019195819591090E94E109888DA9
:100BF000998D07C08FE99FE00197F1F700C00000D1
:100C0000C9019C0121503109892BA1F735C0C5EBE1
:100C1000D1E08E899F8966277727681B790B0E9410
:100C2000E109888D998D07C08FE99FE00197F1F761
:100C300000C00000C9019C0121503109892BA1F796
:100C40001BC0C5EBD1E08E899F8966277727681B7B
:100C5000790B0E94E109888D998D880F991F07C033
:100C60008FE99FE00197F1F700C00000C9019C01E6
:100C700021503109892BA1F760E070E080E090E01D
:100C80000E94E1099FEF29EF80E0915020408040D1
:100C9000E1F700C00000DF91CF9108954F925F927D
:100CA0006F927F928F929F92AF92BF92CF92DF927C
:100CB000EF92FF920F931F93CF93DF93CDB7DEB7E1
:100CC0002E970FB6F894DEBF0FBECDBF1092B001C5
:100CD0001092AF0161E0CE0101960E94B4048C0134
:100CE000005D17404801012E000CAA08BB08E5EB87
:100CF000F1E0A085B185A50194010E946E0B472EFD
:100D0000582E692E772467FC7A948091AF019091D8
:100D1000B001092E000CAA0BBB0B281B390B4A0B88
:100D20005B0BA285B3850E946E0BC72ED82EE92ED1
:100D3000FF24E7FCFA9429813A818B819C81A0E011
:100D4000B0E0820F931FA11DB11D2D813E81820F46
:100D5000931FA11DB11D2F813885820F931FA11DE7
:100D6000B11D29853A85820F931FA11DB11D893CB4
:100D70009105A105B105A8F08091B1019091B20152
:100D8000A091B301B091B401880E991EAA1EBB1E9A
:100D90008092B1019092B201A092B301B092B401DD
:100DA0001EC08091B1019091B201A091B301B091A8
:100DB000B401AC01BD01689412F87595679557951B
:100DC00047951694D1F7841B950BA60BB70B809310
:100DD000B1019093B201A093B301B093B401A0907C
:100DE000C101B090C201C501A0E0B0E08B879C8733
:100DF000AD87BE876091B1017091B2018091B3015E
:100E00009091B4012B853C854D855E850E94FA0A40
:100E1000BB2797FDBA95A92F982F872F8739910562
:100E2000A105B105D4F0A114B10499F060E076E910
:100E300080E090E00E94400B2093B1013093B2011A
:100E40004093B3015093B40186E990E0A0E0B0E094
:100E500004C086E990E0A0E0B0E08A362FEF920768
:100E6000A207B207ECF4AB28B9F060E07AE68FEFA6
:100E70009FEF2B853C854D855E850E94400B20931E
:100E8000B1013093B2014093B3015093B4018AE6AB
:100E90009FEFAFEFBFEF04C08AE69FEFAFEFBFEF6A
:100EA000BC01640D751DC60ED71E1093B0010093D2
:100EB000AF01E5EBF1E084819581A601480F591F50
:100EC0009C012C193D09A081B18162817381461773
:100ED000570734F0A417B50734F48A2F9B2F05C0A9
:100EE000862F972F02C0842F952F2617370734F0AF
:100EF000A217B30714F4BD0101C0B9010E94E109B2
:100F00008B819C818436910560F48D819E8184362D
:100F1000910548F48F8198858436910530F090E0F2
:100F200005C090E003C090E001C091E0892F81707E
:100F300089F489819A81893C910560F489859A8533
:100F4000893C910538F48FE39FE10197F1F700C0E8
:100F50000000C0CE2E960FB6F894DEBF0FBECDBFF8
:100F6000DF91CF911F910F91FF90EF90DF90CF9085
:100F7000BF90AF909F908F907F906F905F904F90B9
:100F80000895EF92FF920F931F93CF93DF93CDB706
:100F9000DEB7A2970FB6F894DEBF0FBECDBF0E949A
:100FA0004E0605EB11E0F80186859785BC010E948D
:100FB000E109F8018089918907C08FE99FE00197D5
:100FC000F1F700C00000C9019C0121503109892BB3
:100FD000A1F761E0CE0149960E94B404898D9A8DF3
:100FE000893C910510F4F12C02C0FF24F39489A1EF
:100FF0009AA1893C910510F4E12C02C0EE24E394FF
:1010000005EB11E0F80182899389BC010E94E10996
:10101000F8018489958907C08FE99FE00197F1F76E
:1010200000C00000C9019C0121503109892BA1F7A2
:1010300061E0CE0149960E94B4048B8D9C8D8D3267
:10104000E1E09E0760F42D8D3E8D2D32314048F455
:101050002F8D38A12D32314030F460E005C061E0C1
:1010600003C061E001C061E0298D3A8D2D3231402D
:1010700078F18D32914060F18D8D9E8D8D32914051
:1010800038F18F8D98A18D32914010F189A19AA1EC
:101090008D329140E8F060E070E080E090E00E94E6
:1010A000E10980E00E94770581E00E9477054CE12C
:1010B00051E060E080E00E94C005FFEF2FE443ECC8
:1010C000F15020404040E1F700C0000081E02CC01A
:1010D0004E2D8F2D0E946905182F0E94E405812F47
:1010E0000E94FC040E940E0581E00E9477058FE8B3
:1010F00091E09F938F9389E291E09F938F931F924A
:1011000088E18F938E010F5F1F4F1F930F930E94F3
:101110008D0BA80160E081E00E94C0050FB6F89435
:10112000DEBF0FBECDBF80E0A2960FB6F894DEBF43
:101130000FBECDBFDF91CF911F910F91FF90EF9028
:10114000089580E00E94770581E00E94770542E3E0
:1011500051E060E080E00E94C0050E94F7040E9418
:10116000C1078823E1F30895EF92FF921F93CF9375
:10117000DF93CDB7DEB768970FB6F894DEBF0FBE2A
:10118000CDBF80E00E94770581E00E9477054EE3A5
:1011900051E060E080E00E94C0054FE851E060E06F
:1011A00081E00E94C0052AEA34ED8CE191E02150F3
:1011B000304080409040D9F7000080E00E947705E1
:1011C00081E00E9477054DE451E060E080E00E94FC
:1011D000C0054FE851E060E081E00E94C00510E0EA
:1011E00042C00E944E060F2EF5EBEF2EF1E0FF2ECF
:1011F000F02DF701828D938DBC010E94E109F7016A
:10120000848D958D07C08FE99FE00197F1F700C0AD
:101210000000C9019C0121503109892BA1F70F2E33
:10122000F5EBEF2EF1E0FF2EF02DF701868D978D77
:10123000BC010E94E109F70180A191A107C08FE9DB
:101240009FE00197F1F700C00000C9019C01215007
:101250003109892BA1F7E12FF0E0E157FE4F8081A2
:101260000E94E4051F5F80918E01181708F4B9CF22
:101270000E944E0660E070E080E090E00E94E1098C
:1012800080E00E94770581E00E94770586E0EAE52C
:10129000F1E0DE01119601900D928A95E1F7AE0121
:1012A0004F5F5F4F60E080E00E94C00568960FB618
:1012B000F894DEBF0FBECDBFDF91CF911F91FF909D
:1012C000EF9008950E947A0280E991E00E94B909A6
:1012D0000E94B8040E94CF052FEF85EA9EE02150BE
:1012E00080409040E1F700C000000E945002C0E042
:1012F000D0E031C0CE0187709927892B49F481E075
:101300000E94770540E151E060E081E00E94C00565
:10131000CE014597889758F48091BB019091BC010C
:10132000BC019195819591090E94E1090AC08091C3
:10133000BB019091BC0166277727681B790B0E943F
:10134000E10981E00E94CF028FE39CE90197F1F768
:1013500000C000002196C035D10560F260E070E069
:1013600080E090E00E94E1090E94A1080E94B40878
:10137000FFCF009719F420E981E002C0282F892FC0
:10138000209302018093030184B1866684B985B1FC
:10139000897F85B980EA8093800081E18093810014
:1013A00080910201909103019093870080938600C1
:1013B000109289001092880010928B0010928A007F
:1013C0000895F091D80199232CF491958195910974
:1013D000E1E001C0E0E02091020130910301A901A8
:1013E000281739070CF0AC014217530708F49A018B
:1013F00030938B0020938A00FE1721F085B1846022
:1014000085B903C085B18B7F85B95091D70177230A
:101410002CF471956195710941E001C040E0809123
:101420000201909103019C01861797070CF09B0124
:101430002817390708F4C901909389008093880020
:10144000541721F085B1826085B9089585B18D7FEB
:1014500085B908958AB184608AB98AB188608AB9E9
:101460008BB1877F8BB98AB180628AB984B1816080
:1014700084B908958BB1877F8BB908958BB188604B
:101480008BB90895811104C08BB18F7D8BB90895FC
:101490008BB180628BB908958BB18B7F8BB985E35B
:1014A0008A95F1F700008BB184608BB985E38A954A
:1014B000F1F70000089585B18E7F85B9089585B153
:1014C000816085B90895CF93C82F0E943A0A8C2F66
:1014D000881F8827881F0E94420A0E943E0A0E9495
:1014E0003A0AC6FB882780F90E94420A0E943E0AF7
:1014F0000E943A0AC5FB882780F90E94420A0E948E
:101500003E0A0E943A0AC4FB882780F90E94420AD8
:101510000E943E0A0E943A0AC3FB882780F90E9473
:10152000420A0E943E0A0E943A0AC2FB882780F9BA
:101530000E94420A0E943E0A0E943A0AC1FB882782
:1015400080F90E94420A0E943E0A0E943A0A8C2FA9
:1015500081700E94420A0E943E0ACF910895CF9363
:10156000DF930E943A0A0E945B0A82E00E94630AAB
:10157000D0E014C00E945B0A8D2F806B0E94630A2A
:1015800080E10E94630A0E945F0AC0E004C080E01C
:101590000E94630ACF5FCC23D4F7DF5FD83050F3CB
:1015A000DF91CF9108950E943A0A0E945B0A81EA76
:1015B0000E94630A88EC0E94630A81E80E94630A21
:1015C0008FEF0E94630A8FEA0E94630A08958032B7
:1015D00078F090E08097FC01EE0FFF1FEE0FFF1FE9
:1015E000E80FF91FE60FF11DE455FF4F84910895B0
:1015F00080E00895DB018F939F930E946E0BBF9153
:10160000AF91A29F800D911DA39F900DB29F900D51
:101610001124089597FB072E16F4009407D077FD48
:1016200009D00E94790B07FC05D03EF49095819576
:101630009F4F0895709561957F4F0895A1E21A2EEE
:10164000AA1BBB1BFD010DC0AA1FBB1FEE1FFF1F66
:10165000A217B307E407F50720F0A21BB30BE40BB6
:10166000F50B661F771F881F991F1A9469F76095FD
:101670007095809590959B01AC01BD01CF010895B7
:10168000052E97FB1EF400940E94570B57FD07D0C0
:101690000E941E0B07FC03D04EF40C94570B509580
:1016A0004095309521953F4F4F4F5F4F089590954E
:1016B0008095709561957F4F8F4F9F4F0895A29FA2
:1016C000B001B39FC001A39F700D811D1124911D16
:1016D000B29F700D811D1124911D08950E945F0B12
:1016E000A59F900DB49F900DA49F800D911D112476
:1016F0000895AA1BBB1B51E107C0AA1FBB1FA61759
:10170000B70710F0A61BB70B881F991F5A95A9F7AA
:1017100080959095BC01CD010895AEE0B0E0E3E97D
:10172000FBE00C945C0E0D891E898F89988D26E054
:101730002C831A83098397FF02C080E090E8019709
:101740009E838D83AE01455E5F4F698D7A8DCE019C
:1017500001960E94BD0B4D815E8157FD0AC02F810D
:101760003885421753070CF49A01F801E20FF31F72
:1017700010822E96E4E00C94780EABE0B0E0E3EC3F
:10178000FBE00C944E0E6C017B018A01FC01178278
:101790001682838181FFCCC1CE0101963C01F60106
:1017A0009381F70193FD859193FF81917F018823B8
:1017B00009F4BAC1853239F493FD859193FF819183
:1017C0007F01853229F4B60190E00E94B40DE7CF85
:1017D000912C212C312CFFE1F315D8F08B3279F0CC
:1017E00038F4803279F08332A1F4232D20611DC0BA
:1017F0008D3261F0803369F4232D216016C0832D72
:101800008260382EE32DE4603E2E2AC0F32DF8606E
:101810001DC037FC2DC020ED280F2A3040F08E323D
:10182000B9F436FC81C1232D2064322E19C036FE56
:1018300006C08AE0989E200D1124922E11C0EAE085
:101840002E9E200D1124222EF32DF0623F2E08C073
:101850008C3621F4832D8068382E02C0883641F4FE
:10186000F70193FD859193FF81917F018111B3CFA2
:10187000982F9F7D9554933028F40C5F1F4F9FE362
:1018800099830DC0833631F0833771F0833509F0C9
:1018900059C021C0F801808189830E5F1F4F8824C1
:1018A0008394912C530113C02801F2E04F0E511C78
:1018B000F801A080B18036FE03C0692D70E002C03F
:1018C0006FEF7FEFC5010E94A90D4C018201F32D3E
:1018D000FF773F2E16C0280122E0420E511CF8016E
:1018E000A080B18036FE03C0692D70E002C06FEFAA
:1018F0007FEFC5010E949E0D4C01F32DF0683F2E35
:10190000820133FC1BC0822D90E088169906B0F44A
:10191000B60180E290E00E94B40D2A94F4CFF50164
:1019200037FC859137FE81915F01B60190E00E94FE
:10193000B40D21102A9421E0821A91088114910497
:1019400071F7E8C0843611F0893641F5F80137FEA9
:1019500007C060817181828193810C5F1F4F08C035
:1019600060817181072E000C880B990B0E5F1F4F51
:10197000F32DFF763F2E97FF09C0909580957095C7
:1019800061957F4F8F4F9F4FF0683F2E2AE030E0E8
:10199000A3010E94F00D882E861845C0853731F4CA
:1019A000232D2F7EB22E2AE030E025C0932D997F83
:1019B000B92E8F36C1F018F4883579F0B5C080376C
:1019C00019F0883721F0B0C0E92FE061BE2EB4FED7
:1019D0000DC0FB2DF460BF2E09C034FE0AC0292FB4
:1019E0002660B22E06C028E030E005C020E130E0DD
:1019F00002C020E132E0F801B7FE07C060817181CA
:101A0000828193810C5F1F4F06C06081718180E0ED
:101A100090E00E5F1F4FA3010E94F00D882E8618E4
:101A2000FB2DFF773F2E36FE0DC0232D2E7FA22EDD
:101A3000891458F434FE0BC032FC09C0832D8E7E0D
:101A4000A82E05C0B82CA32C03C0B82C01C0B92CFB
:101A5000A4FE0FC0FE01E80DF11D8081803321F44A
:101A60009A2D997EA92E09C0A2FE06C0B394B39404
:101A700004C08A2D867809F0B394A3FC11C0A0FE9F
:101A800006C0B21488F4280C922C9B180EC0B21415
:101A900060F4B60180E290E00E94B40DB394F7CFF9
:101AA000B21418F42B1802C0982C212CA4FE10C0DC
:101AB000B60180E390E00E94B40DA2FE17C0A1FC25
:101AC00003C088E790E002C088E590E0B6010CC052
:101AD0008A2D867859F0A1FE02C08BE201C080E217
:101AE000A7FC8DE2B60190E00E94B40D891438F491
:101AF000B60180E390E00E94B40D9A94F7CF8A94E7
:101B0000F301E80DF11D8081B60190E00E94B40D53
:101B10008110F5CF222009F442CEB60180E290E098
:101B20000E94B40D2A94F6CFF6018681978102C0F7
:101B30008FEF9FEF2B96E2E10C946A0EFC0105906B
:101B4000615070400110D8F7809590958E0F9F1FBF
:101B50000895FC016150704001900110D8F7809504
:101B600090958E0F9F1F08950F931F93CF93DF9330
:101B7000FB01238121FD03C08FEF9FEF2CC022FFCB
:101B800016C046815781248135814217530744F49A
:101B9000A081B1819D012F5F3F4F318320838C93C2
:101BA000268137812F5F3F4F3783268314C08B01F7
:101BB000EC01FB010084F185E02D0995892BE1F60C
:101BC000D80116968D919C911797019617969C9324
:101BD0008E931697CE01DF91CF911F910F910895AB
:101BE000FA01AA27283051F1203181F1E8946F934E
:101BF0006E7F6E5F7F4F8F4F9F4FAF4FB1E03ED0F4
:101C0000B4E03CD0670F781F891F9A1FA11D680F91
:101C1000791F8A1F911DA11D6A0F711D811D911DC4
:101C2000A11D20D009F468943F912AE0269F112439
:101C30003019305D3193DEF6CF010895462F47709D
:101C4000405D4193B3E00FD0C9F7F6CF462F4F70F8
:101C5000405D4A3318F0495D31FD4052419302D056
:101C6000A9F7EACFB4E0A6959795879577956795FC
:101C7000BA95C9F700976105710508959B01AC01FC
:101C80000A2E06945795479537952795BA95C9F723
:101C9000620F731F841F951FA01D08952F923F92FE
:101CA0004F925F926F927F928F929F92AF92BF926C
:101CB000CF92DF92EF92FF920F931F93CF93DF9318
:101CC000CDB7DEB7CA1BDB0B0FB6F894DEBF0FBE75
:101CD000CDBF09942A88398848885F846E847D84C2
:101CE0008C849B84AA84B984C884DF80EE80FD80C4
:101CF0000C811B81AA81B981CE0FD11D0FB6F8943A
:0E1D0000DEBF0FBECDBFED010895F894FFCFFA
:101D0E00A00F90014D617A6520536F6C766572005D
:101D1E0043616C6962726174696E6700476F616CD2
:101D2E00205265616368656400506174683A2025CD
:101D3E0073004C6561726E696E672E2E2E005265B1
:101D4E0073657420746F20737461727400526570C1
:101D5E006C6179696E672E2E2E00446F6E652100C0
:00000001FF
